:0600000002003002005F67
:0300130002006286
:03001B000200746C
:10003000758160753000753100753200753300755B
:100040008960758DFF758BFFD2AFD2ABD2A8D2AAD3
:10005000D288D28AD2B8D2BAC28E1200AE80FBB297
:100060008E32C28E753000753100753200753300E6
:10007000758BFF32C0D0C0E0E5302401D4E53004F8
:10008000F530B46424753000E53104F531B46419F9
:10009000753100E53204F532B4640E753200E53393
:1000A00004F533B46403753300D0E0D0D032E533C7
:1000B00075F00A8490013A9375800075A0FEF58072
:1000C000120135E5F09375800075A0FDF5801201F1
:1000D00035E53275F00A849375800075A0FBF580D4
:1000E000120135E5F09375800075A0F7F5801201D7
:1000F00035E53175F00A849375800075A0EFF580C1
:10010000120135E5F09375800075A0DFF5801201CE
:1001100035E53075F00A849375800075A0BFF580D1
:10012000120135E5F09375800075A07FF58012010E
:1001300035758000227F64DFFE223F065B4F666DCF
:040140007D077F6F49
:00000001FF
