:020000002100DD
:02000B0021AD25
:10010000758160758901758ADC758C0BD28CD2A9DA
:10011000D2AF754019754108C2A1C2A23122314047
:1001200080FAE54075F00A84F55085F0517552105B
:10013000755310755410755510755610755710225B
:10014000C083C082C0D0C0E078507530FE7580FF9B
:10015000D2A700C2A7900190E693F580D2A600C274
:10016000A6E530F580D2A700C2A731A408E530305B
:10017000E70523F530214D758000D2A600C2A67593
:1001800080FFD2A700C2A7D0E0D0D0D082D08322F7
:100190003F065B4F666D7D077F6F777C395E7971B7
:1001A0000076384079027A00DAFED9FA22C083C09C
:1001B00082C0E0C0D0758ADC758C0BE54114F54136
:1001C0007020754108759000D2A200C2A230B4FD23
:1001D000D2A1007590FFE590C2A194229001EB930B
:1001E000F540D0D0D0E0D082D0833263615F5D5CD7
:1001F0005A59585655545251504F4E4D4C4B4A49EE
:10020000484746454443424141403F3E3E3D3C3BDA
:100210003A3A393838373736353434333332323185
:1002200030302F2E2E2D2D2C2C2B2B2A2A2929280D
:10023000282727262625252424232322222121207E
:10024000201F1F1E1E1E1D1D1C1C1B1B1B1A1A19E6
:100250001918181817171616151515151513131242
:100260001212111110100F0F0F0E0E0D0D0C0C0CA1
:100270000B0B0A0A0A0909080808070706060505FC
:0B02800004040403030202010100005B
:00000001FF
