:0700000002010012010632AB
:10010000D2AFD2A8D28830801930811C30821F3003
:10011000832230842530852830862B30872E0201BB
:100120005222C29075391E22C29175403C22C29261
:1001300075415A22C29375427822C294754378223F
:10014000C29575445A22C29675453C22C29775469F
:100150001E2212017DD53902D290D54002D291D50E
:100160004102D292D54202D293D54302D294D544D1
:1001700002D295D54502D296D546D7D297C03075D2
:10018000306412018BD530FAD03022C0307530F88F
:080190000000D530FBD0302245
:00000001FF
