:0600000002010002017E76
:10010000758160D288D2AFD2A8C2A6E412012612AD
:10011000013570EC12014470E712015370E21201D4
:100120006270DD02010FD2A6120171D280D283C2A9
:10013000A612019922D2A6120171D280D285C2A63E
:1001400012018C22D2A6120171D280D284C2A612D0
:10015000019922D2A6120171D282D283C2A61201C3
:100160008C22D2A6120171D281D283C2A612019929
:1001700022C280C281C282C283C284C28522E4D2EA
:10018000A6120171D280D283C2A604327FBD7EE660
:100190007D21DDFEDEFADFF6227F7F7EEB7D20DD36
:0701A000FEDEFADFF600228B
:00000001FF
