:100000007590F075B0F0D382A082A182A282A34045
:10001000F275B0FE20A00574E10200A020A10574D5
:10002000D10200A020A20574B10200A020A3057493
:10003000710200A075B0FD20A00574E20200A020AE
:10004000A10574D20200A020A20574B20200A02073
:10005000A30574720200A075B0FB20A00574E40231
:1000600000A020A10574D40200A020A20574B4024F
:1000700000A020A30574740200A075B0F720A005AD
:1000800074E80200A020A10574D80200A020A205F7
:1000900074B80200A020A30574780200A002000337
:1000A000F59075B0F0D382A082A182A282A350F015
:0600B0007590F002000350
:00000001FF
