:03000000020030CB
:100030007580807590FF20900DC294D295D296D293
:100040009712008580F0D29420910BC295D296D25F
:100050009712009A80E0D295209209C296D2971208
:1000600000A680D2D296209307C2971200C880C6FD
:10007000D29780C2C0E0C007E5A0F46003FFDFFEB6
:10008000D007D0E0227E807580FF120074DEF87EFB
:1000900080758000120074DEF8227400F580120072
:1000A00074240270F7227400F5801200742402B4E4
:1000B000FE02800240F274FEF580120074C39402C6
:1000C00070F6F580120074229000D97E00EE93F550
:1000D000801200740EEE70F522808386898C8F92D8
:1000E00095989B9EA2A5A8ABAEB0B3B6B9BCBFC154
:1000F000C4C7C9CCCED1D3D5D8DADCDEE0E2E4E6A1
:10010000E8EAECEDEFF0F2F3F5F6F7F8F9FAFBFCBC
:10011000FCFDFEFEFFFFFFFFFFFFFFFFFFFFFFFEF7
:10012000FEFDFCFCFBFAF9F8F7F6F5F3F2F0EFED63
:10013000ECEAE8E6E4E2E0DEDCDAD8D5D3D1CECCF6
:10014000C9C7C4C1BFBCB9B6B3B0AEABA8A5A29E67
:100150009B9895928F8C898683807D7A7774716E57
:100160006B6865625E5B585552504D4A4744413F4B
:100170003C393734322F2D2B28262422201E1C1ADE
:100180001816141311100E0D0B0A090807060504A2
:100190000403020201010101010101010101010247
:1001A0000203040405060708090A0B0D0E101113BB
:1001B0001416181A1C1E20222426282B2D2F323408
:1001C00037393C3F4144474A4D505255585B5E6277
:0901D00065686B6E7174777A7D2D
:00000001FF
