:03000000020030CB
:1000300075816012003B12005480FB75300A7531E7
:100040000B75320C75330C75340075350D75360D26
:1000500075370E22783079FE7A0089A0D2B1C2B10C
:1000600020B20C1200E320B20612008D1200A5E6A9
:100070009000EC93F5A0D2B0C2B01200DE75A000E3
:10008000D2B0C2B008E923F90ABA08CE22853130CD
:10009000853231853332853433853534853635853F
:1000A00037368A3722C000C001C00220B22978301A
:1000B00079FE7A0889A0D2B1C2B1E69000EC93F53E
:1000C000A0D2B0C2B01200DE75A000D2B0C2B0089B
:1000D000E923F9DADF80D4D002D001D000227BC836
:1000E000DBFE227B147CF8DCFEDBFA223F065B4F52
:0B00F000666D7D077F6F767938400059
:00000001FF
